{
  "_format": "hh-sol-artifact-1",
  "contractName": "ProviderRegistry",
  "sourceName": "contracts/ProviderRegistry.sol",
  "abi": [
    {
      "anonymous": false,
      "inputs": [
        {
          "indexed": true,
          "internalType": "address",
          "name": "provider",
          "type": "address"
        },
        {
          "indexed": true,
          "internalType": "address",
          "name": "payoutAddress",
          "type": "address"
        },
        {
          "indexed": false,
          "internalType": "string",
          "name": "endpointUri",
          "type": "string"
        },
        {
          "indexed": false,
          "internalType": "uint256",
          "name": "pricePerBlock",
          "type": "uint256"
        }
      ],
      "name": "ProviderRegistered",
      "type": "event"
    },
    {
      "inputs": [
        {
          "internalType": "address",
          "name": "provider",
          "type": "address"
        }
      ],
      "name": "isProviderActive",
      "outputs": [
        {
          "internalType": "bool",
          "name": "",
          "type": "bool"
        }
      ],
      "stateMutability": "view",
      "type": "function"
    },
    {
      "inputs": [],
      "name": "providerCount",
      "outputs": [
        {
          "internalType": "uint256",
          "name": "",
          "type": "uint256"
        }
      ],
      "stateMutability": "view",
      "type": "function"
    },
    {
      "inputs": [
        {
          "internalType": "address",
          "name": "",
          "type": "address"
        }
      ],
      "name": "providers",
      "outputs": [
        {
          "internalType": "address",
          "name": "payoutAddress",
          "type": "address"
        },
        {
          "internalType": "string",
          "name": "endpointUri",
          "type": "string"
        },
        {
          "internalType": "uint256",
          "name": "pricePerBlock",
          "type": "uint256"
        },
        {
          "internalType": "bool",
          "name": "active",
          "type": "bool"
        }
      ],
      "stateMutability": "view",
      "type": "function"
    },
    {
      "inputs": [
        {
          "internalType": "string",
          "name": "endpointUri",
          "type": "string"
        },
        {
          "internalType": "uint256",
          "name": "pricePerBlock",
          "type": "uint256"
        }
      ],
      "name": "registerProvider",
      "outputs": [],
      "stateMutability": "nonpayable",
      "type": "function"
    }
  ],
  "bytecode": "0x608060405234801561001057600080fd5b50610be8806100206000396000f3fe608060405234801561001057600080fd5b506004361061004c5760003560e01c80630787bc2714610051578063696724cb1461008457806374c83268146100b4578063bb66e09d146100d2575b600080fd5b61006b600480360381019061006691906104f5565b6100ee565b60405161007b94939291906105f5565b60405180910390f35b61009e600480360381019061009991906104f5565b6101d3565b6040516100ab9190610641565b60405180910390f35b6100bc61022b565b6040516100c9919061065c565b60405180910390f35b6100ec60048036038101906100e79190610708565b610231565b005b60006020528060005260406000206000915090508060000160009054906101000a900473ffffffffffffffffffffffffffffffffffffffff169080600101805461013790610797565b80601f016020809104026020016040519081016040528092919081815260200182805461016390610797565b80156101b05780601f10610185576101008083540402835291602001916101b0565b820191906000526020600020905b81548152906001019060200180831161019357829003601f168201915b5050505050908060020154908060030160009054906101000a900460ff16905084565b60008060008373ffffffffffffffffffffffffffffffffffffffff1673ffffffffffffffffffffffffffffffffffffffff16815260200190815260200160002060030160009054906101000a900460ff169050919050565b60015481565b6000803373ffffffffffffffffffffffffffffffffffffffff1673ffffffffffffffffffffffffffffffffffffffff16815260200190815260200160002060030160009054906101000a900460ff16156102c0576040517f08c379a00000000000000000000000000000000000000000000000000000000081526004016102b790610814565b60405180910390fd5b60405180608001604052803373ffffffffffffffffffffffffffffffffffffffff16815260200184848080601f016020809104026020016040519081016040528093929190818152602001838380828437600081840152601f19601f820116905080830192505050505050508152602001828152602001600115158152506000803373ffffffffffffffffffffffffffffffffffffffff1673ffffffffffffffffffffffffffffffffffffffff16815260200190815260200160002060008201518160000160006101000a81548173ffffffffffffffffffffffffffffffffffffffff021916908373ffffffffffffffffffffffffffffffffffffffff16021790555060208201518160010190816103d89190610a0f565b506040820151816002015560608201518160030160006101000a81548160ff02191690831515021790555090505060018060008282546104189190610b10565b925050819055503373ffffffffffffffffffffffffffffffffffffffff163373ffffffffffffffffffffffffffffffffffffffff167f517258e3baaf6949d38acd07fe01a26f215cc10b702560776f231f6c5890759585858560405161048093929190610b80565b60405180910390a3505050565b600080fd5b600080fd5b600073ffffffffffffffffffffffffffffffffffffffff82169050919050565b60006104c282610497565b9050919050565b6104d2816104b7565b81146104dd57600080fd5b50565b6000813590506104ef816104c9565b92915050565b60006020828403121561050b5761050a61048d565b5b6000610519848285016104e0565b91505092915050565b61052b816104b7565b82525050565b600081519050919050565b600082825260208201905092915050565b60005b8381101561056b578082015181840152602081019050610550565b60008484015250505050565b6000601f19601f8301169050919050565b600061059382610531565b61059d818561053c565b93506105ad81856020860161054d565b6105b681610577565b840191505092915050565b6000819050919050565b6105d4816105c1565b82525050565b60008115159050919050565b6105ef816105da565b82525050565b600060808201905061060a6000830187610522565b818103602083015261061c8186610588565b905061062b60408301856105cb565b61063860608301846105e6565b95945050505050565b600060208201905061065660008301846105e6565b92915050565b600060208201905061067160008301846105cb565b92915050565b600080fd5b600080fd5b600080fd5b60008083601f84011261069c5761069b610677565b5b8235905067ffffffffffffffff8111156106b9576106b861067c565b5b6020830191508360018202830111156106d5576106d4610681565b5b9250929050565b6106e5816105c1565b81146106f057600080fd5b50565b600081359050610702816106dc565b92915050565b6000806000604084860312156107215761072061048d565b5b600084013567ffffffffffffffff81111561073f5761073e610492565b5b61074b86828701610686565b9350935050602061075e868287016106f3565b9150509250925092565b7f4e487b7100000000000000000000000000000000000000000000000000000000600052602260045260246000fd5b600060028204905060018216806107af57607f821691505b6020821081036107c2576107c1610768565b5b50919050565b7f70726f766964657220616c726561647920726567697374657265640000000000600082015250565b60006107fe601b8361053c565b9150610809826107c8565b602082019050919050565b6000602082019050818103600083015261082d816107f1565b9050919050565b7f4e487b7100000000000000000000000000000000000000000000000000000000600052604160045260246000fd5b60008190508160005260206000209050919050565b60006020601f8301049050919050565b600082821b905092915050565b6000600883026108c57fffffffffffffffffffffffffffffffffffffffffffffffffffffffffffffffff82610888565b6108cf8683610888565b95508019841693508086168417925050509392505050565b6000819050919050565b600061090c610907610902846105c1565b6108e7565b6105c1565b9050919050565b6000819050919050565b610926836108f1565b61093a61093282610913565b848454610895565b825550505050565b600090565b61094f610942565b61095a81848461091d565b505050565b5b8181101561097e57610973600082610947565b600181019050610960565b5050565b601f8211156109c35761099481610863565b61099d84610878565b810160208510156109ac578190505b6109c06109b885610878565b83018261095f565b50505b505050565b600082821c905092915050565b60006109e6600019846008026109c8565b1980831691505092915050565b60006109ff83836109d5565b9150826002028217905092915050565b610a1882610531565b67ffffffffffffffff811115610a3157610a30610834565b5b610a3b8254610797565b610a46828285610982565b600060209050601f831160018114610a795760008415610a67578287015190505b610a7185826109f3565b865550610ad9565b601f198416610a8786610863565b60005b82811015610aaf57848901518255600182019150602085019450602081019050610a8a565b86831015610acc5784890151610ac8601f8916826109d5565b8355505b6001600288020188555050505b505050505050565b7f4e487b7100000000000000000000000000000000000000000000000000000000600052601160045260246000fd5b6000610b1b826105c1565b9150610b26836105c1565b9250828201905080821115610b3e57610b3d610ae1565b5b92915050565b82818337600083830152505050565b6000610b5f838561053c565b9350610b6c838584610b44565b610b7583610577565b840190509392505050565b60006040820190508181036000830152610b9b818587610b53565b9050610baa60208301846105cb565b94935050505056fea2646970667358221220ed0c0e9732cd77177dab4e3b4e1492507e61dd8e21e33b3fa9930028579f534264736f6c63430008140033",
  "linkReferences": {},
  "deployedLinkReferences": {}
}