{
  "_format": "hh-sol-artifact-1",
  "contractName": "DownloadManager",
  "sourceName": "contracts/DownloadManager.sol",
  "abi": [
    {
      "inputs": [
        {
          "internalType": "address",
          "name": "fileRegistryAddress",
          "type": "address"
        },
        {
          "internalType": "address",
          "name": "providerRegistryAddress",
          "type": "address"
        }
      ],
      "stateMutability": "nonpayable",
      "type": "constructor"
    },
    {
      "anonymous": false,
      "inputs": [
        {
          "indexed": true,
          "internalType": "uint256",
          "name": "jobId",
          "type": "uint256"
        },
        {
          "indexed": true,
          "internalType": "bytes32",
          "name": "blockId",
          "type": "bytes32"
        },
        {
          "indexed": true,
          "internalType": "address",
          "name": "provider",
          "type": "address"
        },
        {
          "indexed": false,
          "internalType": "uint256",
          "name": "priceWei",
          "type": "uint256"
        }
      ],
      "name": "BlockAccepted",
      "type": "event"
    },
    {
      "anonymous": false,
      "inputs": [
        {
          "indexed": true,
          "internalType": "uint256",
          "name": "jobId",
          "type": "uint256"
        },
        {
          "indexed": true,
          "internalType": "bytes32",
          "name": "fileId",
          "type": "bytes32"
        },
        {
          "indexed": true,
          "internalType": "address",
          "name": "requester",
          "type": "address"
        },
        {
          "indexed": false,
          "internalType": "uint256",
          "name": "budget",
          "type": "uint256"
        }
      ],
      "name": "DownloadRequested",
      "type": "event"
    },
    {
      "anonymous": false,
      "inputs": [
        {
          "indexed": true,
          "internalType": "uint256",
          "name": "jobId",
          "type": "uint256"
        },
        {
          "indexed": false,
          "internalType": "bytes32",
          "name": "resultHash",
          "type": "bytes32"
        },
        {
          "indexed": false,
          "internalType": "uint256",
          "name": "refundWei",
          "type": "uint256"
        }
      ],
      "name": "JobFinalized",
      "type": "event"
    },
    {
      "inputs": [
        {
          "internalType": "uint256",
          "name": "jobId",
          "type": "uint256"
        },
        {
          "internalType": "bytes32",
          "name": "blockId",
          "type": "bytes32"
        },
        {
          "internalType": "uint256",
          "name": "priceWei",
          "type": "uint256"
        }
      ],
      "name": "acceptBlock",
      "outputs": [],
      "stateMutability": "nonpayable",
      "type": "function"
    },
    {
      "inputs": [
        {
          "internalType": "uint256",
          "name": "",
          "type": "uint256"
        },
        {
          "internalType": "bytes32",
          "name": "",
          "type": "bytes32"
        }
      ],
      "name": "claimedBlocks",
      "outputs": [
        {
          "internalType": "bool",
          "name": "",
          "type": "bool"
        }
      ],
      "stateMutability": "view",
      "type": "function"
    },
    {
      "inputs": [],
      "name": "fileRegistry",
      "outputs": [
        {
          "internalType": "contract IFileRegistry",
          "name": "",
          "type": "address"
        }
      ],
      "stateMutability": "view",
      "type": "function"
    },
    {
      "inputs": [
        {
          "internalType": "uint256",
          "name": "jobId",
          "type": "uint256"
        },
        {
          "internalType": "bytes32",
          "name": "resultHash",
          "type": "bytes32"
        }
      ],
      "name": "finalizeJob",
      "outputs": [],
      "stateMutability": "nonpayable",
      "type": "function"
    },
    {
      "inputs": [],
      "name": "jobCount",
      "outputs": [
        {
          "internalType": "uint256",
          "name": "",
          "type": "uint256"
        }
      ],
      "stateMutability": "view",
      "type": "function"
    },
    {
      "inputs": [
        {
          "internalType": "uint256",
          "name": "",
          "type": "uint256"
        }
      ],
      "name": "jobs",
      "outputs": [
        {
          "internalType": "bytes32",
          "name": "fileId",
          "type": "bytes32"
        },
        {
          "internalType": "address",
          "name": "requester",
          "type": "address"
        },
        {
          "internalType": "uint256",
          "name": "budget",
          "type": "uint256"
        },
        {
          "internalType": "uint256",
          "name": "spent",
          "type": "uint256"
        },
        {
          "internalType": "bytes32",
          "name": "resultHash",
          "type": "bytes32"
        },
        {
          "internalType": "bool",
          "name": "finalized",
          "type": "bool"
        }
      ],
      "stateMutability": "view",
      "type": "function"
    },
    {
      "inputs": [],
      "name": "providerRegistry",
      "outputs": [
        {
          "internalType": "contract IProviderRegistry",
          "name": "",
          "type": "address"
        }
      ],
      "stateMutability": "view",
      "type": "function"
    },
    {
      "inputs": [
        {
          "internalType": "bytes32",
          "name": "fileId",
          "type": "bytes32"
        }
      ],
      "name": "requestDownload",
      "outputs": [],
      "stateMutability": "payable",
      "type": "function"
    }
  ],
  "bytecode": "0x60c06040523480156200001157600080fd5b50604051620016f2380380620016f2833981810160405281019062000037919062000111565b8173ffffffffffffffffffffffffffffffffffffffff1660808173ffffffffffffffffffffffffffffffffffffffff16815250508073ffffffffffffffffffffffffffffffffffffffff1660a08173ffffffffffffffffffffffffffffffffffffffff1681525050505062000158565b600080fd5b600073ffffffffffffffffffffffffffffffffffffffff82169050919050565b6000620000d982620000ac565b9050919050565b620000eb81620000cc565b8114620000f757600080fd5b50565b6000815190506200010b81620000e0565b92915050565b600080604083850312156200012b576200012a620000a7565b5b60006200013b85828601620000fa565b92505060206200014e85828601620000fa565b9150509250929050565b60805160a0516115666200018c6000396000818161035501526108f501526000818161069a01526108d101526115666000f3fe60806040526004361061007b5760003560e01c80635276b2631161004e5780635276b26314610132578063545921d91461015d578063af15049d14610188578063c72aeb15146101b15761007b565b8063180aedf31461008057806328f20f08146100c25780634c5d8a0f146100eb5780634eeaa56914610116575b600080fd5b34801561008c57600080fd5b506100a760048036038101906100a29190610c68565b6101ee565b6040516100b996959493929190610d19565b60405180910390f35b3480156100ce57600080fd5b506100e960048036038101906100e49190610da6565b610257565b005b3480156100f757600080fd5b5061010061064f565b60405161010d9190610df9565b60405180910390f35b610130600480360381019061012b9190610e14565b610655565b005b34801561013e57600080fd5b506101476108cf565b6040516101549190610ea0565b60405180910390f35b34801561016957600080fd5b506101726108f3565b60405161017f9190610edc565b60405180910390f35b34801561019457600080fd5b506101af60048036038101906101aa9190610ef7565b610917565b005b3480156101bd57600080fd5b506101d860048036038101906101d39190610ef7565b610bfe565b6040516101e59190610f37565b60405180910390f35b60016020528060005260406000206000915090508060000154908060010160009054906101000a900473ffffffffffffffffffffffffffffffffffffffff16908060020154908060030154908060040154908060050160009054906101000a900460ff16905086565b6000600160008581526020019081526020016000209050600073ffffffffffffffffffffffffffffffffffffffff168160010160009054906101000a900473ffffffffffffffffffffffffffffffffffffffff1673ffffffffffffffffffffffffffffffffffffffff1603610301576040517f08c379a00000000000000000000000000000000000000000000000000000000081526004016102f890610faf565b60405180910390fd5b8060050160009054906101000a900460ff1615610353576040517f08c379a000000000000000000000000000000000000000000000000000000000815260040161034a9061101b565b60405180910390fd5b7f000000000000000000000000000000000000000000000000000000000000000073ffffffffffffffffffffffffffffffffffffffff1663696724cb336040518263ffffffff1660e01b81526004016103ac919061103b565b602060405180830381865afa1580156103c9573d6000803e3d6000fd5b505050506040513d601f19601f820116820180604052508101906103ed9190611082565b61042c576040517f08c379a0000000000000000000000000000000000000000000000000000000008152600401610423906110fb565b60405180910390fd5b60026000858152602001908152602001600020600084815260200190815260200160002060009054906101000a900460ff161561049e576040517f08c379a000000000000000000000000000000000000000000000000000000000815260040161049590611167565b60405180910390fd5b80600201548282600301546104b391906111b6565b11156104f4576040517f08c379a00000000000000000000000000000000000000000000000000000000081526004016104eb90611236565b60405180910390fd5b600160026000868152602001908152602001600020600085815260200190815260200160002060006101000a81548160ff0219169083151502179055508181600301600082825461054591906111b6565b9250508190555060003373ffffffffffffffffffffffffffffffffffffffff168360405161057290611287565b60006040518083038185875af1925050503d80600081146105af576040519150601f19603f3d011682016040523d82523d6000602084013e6105b4565b606091505b50509050806105f8576040517f08c379a00000000000000000000000000000000000000000000000000000000081526004016105ef906112e8565b60405180910390fd5b3373ffffffffffffffffffffffffffffffffffffffff1684867febca5b89974f86c83c1bcbf527e35c659802f6ea3838f0a9a29a26f7005080e6866040516106409190610df9565b60405180910390a45050505050565b60005481565b60003411610698576040517f08c379a000000000000000000000000000000000000000000000000000000000815260040161068f90611354565b60405180910390fd5b7f000000000000000000000000000000000000000000000000000000000000000073ffffffffffffffffffffffffffffffffffffffff16630cec5f62826040518263ffffffff1660e01b81526004016106f19190611374565b602060405180830381865afa15801561070e573d6000803e3d6000fd5b505050506040513d601f19601f820116820180604052508101906107329190611082565b610771576040517f08c379a0000000000000000000000000000000000000000000000000000000008152600401610768906113db565b60405180910390fd5b600160008082825461078391906111b6565b925050819055506040518060c001604052808281526020013373ffffffffffffffffffffffffffffffffffffffff168152602001348152602001600081526020016000801b81526020016000151581525060016000805481526020019081526020016000206000820151816000015560208201518160010160006101000a81548173ffffffffffffffffffffffffffffffffffffffff021916908373ffffffffffffffffffffffffffffffffffffffff16021790555060408201518160020155606082015181600301556080820151816004015560a08201518160050160006101000a81548160ff0219169083151502179055509050503373ffffffffffffffffffffffffffffffffffffffff16816000547f451bb24c3518e1978ea719ac47e7041565382f87fce4bc9b01533c7b23ce3e48346040516108c49190610df9565b60405180910390a450565b7f000000000000000000000000000000000000000000000000000000000000000081565b7f000000000000000000000000000000000000000000000000000000000000000081565b6000600160008481526020019081526020016000209050600073ffffffffffffffffffffffffffffffffffffffff168160010160009054906101000a900473ffffffffffffffffffffffffffffffffffffffff1673ffffffffffffffffffffffffffffffffffffffff16036109c1576040517f08c379a00000000000000000000000000000000000000000000000000000000081526004016109b890610faf565b60405180910390fd5b8060050160009054906101000a900460ff1615610a13576040517f08c379a0000000000000000000000000000000000000000000000000000000008152600401610a0a9061101b565b60405180910390fd5b8060010160009054906101000a900473ffffffffffffffffffffffffffffffffffffffff1673ffffffffffffffffffffffffffffffffffffffff163373ffffffffffffffffffffffffffffffffffffffff1614610aa5576040517f08c379a0000000000000000000000000000000000000000000000000000000008152600401610a9c90611447565b60405180910390fd5b60018160050160006101000a81548160ff021916908315150217905550818160040181905550600081600301548260020154610ae19190611467565b90506000811115610bbe5760008260010160009054906101000a900473ffffffffffffffffffffffffffffffffffffffff1673ffffffffffffffffffffffffffffffffffffffff1682604051610b3690611287565b60006040518083038185875af1925050503d8060008114610b73576040519150601f19603f3d011682016040523d82523d6000602084013e610b78565b606091505b5050905080610bbc576040517f08c379a0000000000000000000000000000000000000000000000000000000008152600401610bb3906114e7565b60405180910390fd5b505b837f3e18c0cfa780d151c9c0d31f6b1b84fd8cc0066d349a146a25f7108da5ed59bb8483604051610bf0929190611507565b60405180910390a250505050565b60026020528160005260406000206020528060005260406000206000915091509054906101000a900460ff1681565b600080fd5b6000819050919050565b610c4581610c32565b8114610c5057600080fd5b50565b600081359050610c6281610c3c565b92915050565b600060208284031215610c7e57610c7d610c2d565b5b6000610c8c84828501610c53565b91505092915050565b6000819050919050565b610ca881610c95565b82525050565b600073ffffffffffffffffffffffffffffffffffffffff82169050919050565b6000610cd982610cae565b9050919050565b610ce981610cce565b82525050565b610cf881610c32565b82525050565b60008115159050919050565b610d1381610cfe565b82525050565b600060c082019050610d2e6000830189610c9f565b610d3b6020830188610ce0565b610d486040830187610cef565b610d556060830186610cef565b610d626080830185610c9f565b610d6f60a0830184610d0a565b979650505050505050565b610d8381610c95565b8114610d8e57600080fd5b50565b600081359050610da081610d7a565b92915050565b600080600060608486031215610dbf57610dbe610c2d565b5b6000610dcd86828701610c53565b9350506020610dde86828701610d91565b9250506040610def86828701610c53565b9150509250925092565b6000602082019050610e0e6000830184610cef565b92915050565b600060208284031215610e2a57610e29610c2d565b5b6000610e3884828501610d91565b91505092915050565b6000819050919050565b6000610e66610e61610e5c84610cae565b610e41565b610cae565b9050919050565b6000610e7882610e4b565b9050919050565b6000610e8a82610e6d565b9050919050565b610e9a81610e7f565b82525050565b6000602082019050610eb56000830184610e91565b92915050565b6000610ec682610e6d565b9050919050565b610ed681610ebb565b82525050565b6000602082019050610ef16000830184610ecd565b92915050565b60008060408385031215610f0e57610f0d610c2d565b5b6000610f1c85828601610c53565b9250506020610f2d85828601610d91565b9150509250929050565b6000602082019050610f4c6000830184610d0a565b92915050565b600082825260208201905092915050565b7f756e6b6e6f776e206a6f62000000000000000000000000000000000000000000600082015250565b6000610f99600b83610f52565b9150610fa482610f63565b602082019050919050565b60006020820190508181036000830152610fc881610f8c565b9050919050565b7f6a6f622066696e616c697a656400000000000000000000000000000000000000600082015250565b6000611005600d83610f52565b915061101082610fcf565b602082019050919050565b6000602082019050818103600083015261103481610ff8565b9050919050565b60006020820190506110506000830184610ce0565b92915050565b61105f81610cfe565b811461106a57600080fd5b50565b60008151905061107c81611056565b92915050565b60006020828403121561109857611097610c2d565b5b60006110a68482850161106d565b91505092915050565b7f696e6163746976652070726f7669646572000000000000000000000000000000600082015250565b60006110e5601183610f52565b91506110f0826110af565b602082019050919050565b60006020820190508181036000830152611114816110d8565b9050919050565b7f626c6f636b20616c726561647920636c61696d65640000000000000000000000600082015250565b6000611151601583610f52565b915061115c8261111b565b602082019050919050565b6000602082019050818103600083015261118081611144565b9050919050565b7f4e487b7100000000000000000000000000000000000000000000000000000000600052601160045260246000fd5b60006111c182610c32565b91506111cc83610c32565b92508282019050808211156111e4576111e3611187565b5b92915050565b7f696e73756666696369656e742062756467657400000000000000000000000000600082015250565b6000611220601383610f52565b915061122b826111ea565b602082019050919050565b6000602082019050818103600083015261124f81611213565b9050919050565b600081905092915050565b50565b6000611271600083611256565b915061127c82611261565b600082019050919050565b600061129282611264565b9150819050919050565b7f70726f7669646572207061796d656e74206661696c6564000000000000000000600082015250565b60006112d2601783610f52565b91506112dd8261129c565b602082019050919050565b60006020820190508181036000830152611301816112c5565b9050919050565b7f6275646765742072657175697265640000000000000000000000000000000000600082015250565b600061133e600f83610f52565b915061134982611308565b602082019050919050565b6000602082019050818103600083015261136d81611331565b9050919050565b60006020820190506113896000830184610c9f565b92915050565b7f756e6b6e6f776e2066696c650000000000000000000000000000000000000000600082015250565b60006113c5600c83610f52565b91506113d08261138f565b602082019050919050565b600060208201905081810360008301526113f4816113b8565b9050919050565b7f6f6e6c7920726571756573746572000000000000000000000000000000000000600082015250565b6000611431600e83610f52565b915061143c826113fb565b602082019050919050565b6000602082019050818103600083015261146081611424565b9050919050565b600061147282610c32565b915061147d83610c32565b925082820390508181111561149557611494611187565b5b92915050565b7f726566756e64206661696c656400000000000000000000000000000000000000600082015250565b60006114d1600d83610f52565b91506114dc8261149b565b602082019050919050565b60006020820190508181036000830152611500816114c4565b9050919050565b600060408201905061151c6000830185610c9f565b6115296020830184610cef565b939250505056fea2646970667358221220aecbb479c2fb97e61be1796216355a753b920d85319baccc8c4e8a92c6abdddd64736f6c63430008140033",
  "linkReferences": {},
  "deployedLinkReferences": {}
}