{
  "_format": "hh-sol-artifact-1",
  "contractName": "FileRegistry",
  "sourceName": "contracts/FileRegistry.sol",
  "abi": [
    {
      "anonymous": false,
      "inputs": [
        {
          "indexed": true,
          "internalType": "bytes32",
          "name": "fileId",
          "type": "bytes32"
        },
        {
          "indexed": true,
          "internalType": "address",
          "name": "owner",
          "type": "address"
        },
        {
          "indexed": false,
          "internalType": "string",
          "name": "metadataUri",
          "type": "string"
        }
      ],
      "name": "FileRegistered",
      "type": "event"
    },
    {
      "inputs": [],
      "name": "fileCount",
      "outputs": [
        {
          "internalType": "uint256",
          "name": "",
          "type": "uint256"
        }
      ],
      "stateMutability": "view",
      "type": "function"
    },
    {
      "inputs": [
        {
          "internalType": "bytes32",
          "name": "fileId",
          "type": "bytes32"
        }
      ],
      "name": "fileExists",
      "outputs": [
        {
          "internalType": "bool",
          "name": "",
          "type": "bool"
        }
      ],
      "stateMutability": "view",
      "type": "function"
    },
    {
      "inputs": [
        {
          "internalType": "bytes32",
          "name": "",
          "type": "bytes32"
        }
      ],
      "name": "files",
      "outputs": [
        {
          "internalType": "address",
          "name": "owner",
          "type": "address"
        },
        {
          "internalType": "bytes32",
          "name": "manifestHash",
          "type": "bytes32"
        },
        {
          "internalType": "bytes32",
          "name": "blockRoot",
          "type": "bytes32"
        },
        {
          "internalType": "bytes32",
          "name": "fileHash",
          "type": "bytes32"
        },
        {
          "internalType": "string",
          "name": "metadataUri",
          "type": "string"
        },
        {
          "internalType": "bool",
          "name": "exists",
          "type": "bool"
        }
      ],
      "stateMutability": "view",
      "type": "function"
    },
    {
      "inputs": [
        {
          "internalType": "bytes32",
          "name": "fileId",
          "type": "bytes32"
        },
        {
          "internalType": "bytes32",
          "name": "manifestHash",
          "type": "bytes32"
        },
        {
          "internalType": "bytes32",
          "name": "blockRoot",
          "type": "bytes32"
        },
        {
          "internalType": "bytes32",
          "name": "fileHash",
          "type": "bytes32"
        },
        {
          "internalType": "string",
          "name": "metadataUri",
          "type": "string"
        }
      ],
      "name": "registerFile",
      "outputs": [],
      "stateMutability": "nonpayable",
      "type": "function"
    }
  ],
  "bytecode": "0x608060405234801561001057600080fd5b50610bb2806100206000396000f3fe608060405234801561001057600080fd5b506004361061004c5760003560e01c80630cec5f62146100515780634395351914610081578063497784e91461009f57806398c9adff146100bb575b600080fd5b61006b60048036038101906100669190610462565b6100f0565b60405161007891906104aa565b60405180910390f35b61008961011c565b60405161009691906104de565b60405180910390f35b6100b960048036038101906100b4919061055e565b610122565b005b6100d560048036038101906100d09190610462565b610331565b6040516100e7969594939291906106d8565b60405180910390f35b600080600083815260200190815260200160002060050160009054906101000a900460ff169050919050565b60015481565b60008087815260200190815260200160002060050160009054906101000a900460ff1615610185576040517f08c379a000000000000000000000000000000000000000000000000000000000815260040161017c9061078c565b60405180910390fd5b6040518060c001604052803373ffffffffffffffffffffffffffffffffffffffff16815260200186815260200185815260200184815260200183838080601f016020809104026020016040519081016040528093929190818152602001838380828437600081840152601f19601f8201169050808301925050505050505081526020016001151581525060008088815260200190815260200160002060008201518160000160006101000a81548173ffffffffffffffffffffffffffffffffffffffff021916908373ffffffffffffffffffffffffffffffffffffffff160217905550602082015181600101556040820151816002015560608201518160030155608082015181600401908161029b91906109e7565b5060a08201518160050160006101000a81548160ff02191690831515021790555090505060018060008282546102d19190610ae8565b925050819055503373ffffffffffffffffffffffffffffffffffffffff16867f1064d34f5bd5e8ffb5b4990f469ecccf48d50fd57be72c3c8b177a00995ade438484604051610321929190610b58565b60405180910390a3505050505050565b60006020528060005260406000206000915090508060000160009054906101000a900473ffffffffffffffffffffffffffffffffffffffff169080600101549080600201549080600301549080600401805461038c9061080a565b80601f01602080910402602001604051908101604052809291908181526020018280546103b89061080a565b80156104055780601f106103da57610100808354040283529160200191610405565b820191906000526020600020905b8154815290600101906020018083116103e857829003601f168201915b5050505050908060050160009054906101000a900460ff16905086565b600080fd5b600080fd5b6000819050919050565b61043f8161042c565b811461044a57600080fd5b50565b60008135905061045c81610436565b92915050565b60006020828403121561047857610477610422565b5b60006104868482850161044d565b91505092915050565b60008115159050919050565b6104a48161048f565b82525050565b60006020820190506104bf600083018461049b565b92915050565b6000819050919050565b6104d8816104c5565b82525050565b60006020820190506104f360008301846104cf565b92915050565b600080fd5b600080fd5b600080fd5b60008083601f84011261051e5761051d6104f9565b5b8235905067ffffffffffffffff81111561053b5761053a6104fe565b5b60208301915083600182028301111561055757610556610503565b5b9250929050565b60008060008060008060a0878903121561057b5761057a610422565b5b600061058989828a0161044d565b965050602061059a89828a0161044d565b95505060406105ab89828a0161044d565b94505060606105bc89828a0161044d565b935050608087013567ffffffffffffffff8111156105dd576105dc610427565b5b6105e989828a01610508565b92509250509295509295509295565b600073ffffffffffffffffffffffffffffffffffffffff82169050919050565b6000610623826105f8565b9050919050565b61063381610618565b82525050565b6106428161042c565b82525050565b600081519050919050565b600082825260208201905092915050565b60005b83811015610682578082015181840152602081019050610667565b60008484015250505050565b6000601f19601f8301169050919050565b60006106aa82610648565b6106b48185610653565b93506106c4818560208601610664565b6106cd8161068e565b840191505092915050565b600060c0820190506106ed600083018961062a565b6106fa6020830188610639565b6107076040830187610639565b6107146060830186610639565b8181036080830152610726818561069f565b905061073560a083018461049b565b979650505050505050565b7f66696c6520616c72656164792072656769737465726564000000000000000000600082015250565b6000610776601783610653565b915061078182610740565b602082019050919050565b600060208201905081810360008301526107a581610769565b9050919050565b7f4e487b7100000000000000000000000000000000000000000000000000000000600052604160045260246000fd5b7f4e487b7100000000000000000000000000000000000000000000000000000000600052602260045260246000fd5b6000600282049050600182168061082257607f821691505b602082108103610835576108346107db565b5b50919050565b60008190508160005260206000209050919050565b60006020601f8301049050919050565b600082821b905092915050565b60006008830261089d7fffffffffffffffffffffffffffffffffffffffffffffffffffffffffffffffff82610860565b6108a78683610860565b95508019841693508086168417925050509392505050565b6000819050919050565b60006108e46108df6108da846104c5565b6108bf565b6104c5565b9050919050565b6000819050919050565b6108fe836108c9565b61091261090a826108eb565b84845461086d565b825550505050565b600090565b61092761091a565b6109328184846108f5565b505050565b5b818110156109565761094b60008261091f565b600181019050610938565b5050565b601f82111561099b5761096c8161083b565b61097584610850565b81016020851015610984578190505b61099861099085610850565b830182610937565b50505b505050565b600082821c905092915050565b60006109be600019846008026109a0565b1980831691505092915050565b60006109d783836109ad565b9150826002028217905092915050565b6109f082610648565b67ffffffffffffffff811115610a0957610a086107ac565b5b610a13825461080a565b610a1e82828561095a565b600060209050601f831160018114610a515760008415610a3f578287015190505b610a4985826109cb565b865550610ab1565b601f198416610a5f8661083b565b60005b82811015610a8757848901518255600182019150602085019450602081019050610a62565b86831015610aa45784890151610aa0601f8916826109ad565b8355505b6001600288020188555050505b505050505050565b7f4e487b7100000000000000000000000000000000000000000000000000000000600052601160045260246000fd5b6000610af3826104c5565b9150610afe836104c5565b9250828201905080821115610b1657610b15610ab9565b5b92915050565b82818337600083830152505050565b6000610b378385610653565b9350610b44838584610b1c565b610b4d8361068e565b840190509392505050565b60006020820190508181036000830152610b73818486610b2b565b9050939250505056fea2646970667358221220309899f4293840bfc113eafebf4333e7c01e10a72888cef026ebc89422f87e3464736f6c63430008140033",
  "linkReferences": {},
  "deployedLinkReferences": {}
}